{
  "contractName": "MyEpicNFT",
  "abi": [
    {
      "inputs": [],
      "stateMutability": "nonpayable",
      "type": "constructor"
    },
    {
      "anonymous": false,
      "inputs": [
        {
          "indexed": true,
          "internalType": "address",
          "name": "owner",
          "type": "address"
        },
        {
          "indexed": true,
          "internalType": "address",
          "name": "approved",
          "type": "address"
        },
        {
          "indexed": true,
          "internalType": "uint256",
          "name": "tokenId",
          "type": "uint256"
        }
      ],
      "name": "Approval",
      "type": "event"
    },
    {
      "anonymous": false,
      "inputs": [
        {
          "indexed": true,
          "internalType": "address",
          "name": "owner",
          "type": "address"
        },
        {
          "indexed": true,
          "internalType": "address",
          "name": "operator",
          "type": "address"
        },
        {
          "indexed": false,
          "internalType": "bool",
          "name": "approved",
          "type": "bool"
        }
      ],
      "name": "ApprovalForAll",
      "type": "event"
    },
    {
      "anonymous": false,
      "inputs": [
        {
          "indexed": true,
          "internalType": "address",
          "name": "from",
          "type": "address"
        },
        {
          "indexed": true,
          "internalType": "address",
          "name": "to",
          "type": "address"
        },
        {
          "indexed": true,
          "internalType": "uint256",
          "name": "tokenId",
          "type": "uint256"
        }
      ],
      "name": "Transfer",
      "type": "event"
    },
    {
      "inputs": [
        {
          "internalType": "address",
          "name": "to",
          "type": "address"
        },
        {
          "internalType": "uint256",
          "name": "tokenId",
          "type": "uint256"
        }
      ],
      "name": "approve",
      "outputs": [],
      "stateMutability": "nonpayable",
      "type": "function"
    },
    {
      "inputs": [
        {
          "internalType": "address",
          "name": "owner",
          "type": "address"
        }
      ],
      "name": "balanceOf",
      "outputs": [
        {
          "internalType": "uint256",
          "name": "",
          "type": "uint256"
        }
      ],
      "stateMutability": "view",
      "type": "function",
      "constant": true
    },
    {
      "inputs": [
        {
          "internalType": "uint256",
          "name": "tokenId",
          "type": "uint256"
        }
      ],
      "name": "getApproved",
      "outputs": [
        {
          "internalType": "address",
          "name": "",
          "type": "address"
        }
      ],
      "stateMutability": "view",
      "type": "function",
      "constant": true
    },
    {
      "inputs": [
        {
          "internalType": "address",
          "name": "owner",
          "type": "address"
        },
        {
          "internalType": "address",
          "name": "operator",
          "type": "address"
        }
      ],
      "name": "isApprovedForAll",
      "outputs": [
        {
          "internalType": "bool",
          "name": "",
          "type": "bool"
        }
      ],
      "stateMutability": "view",
      "type": "function",
      "constant": true
    },
    {
      "inputs": [],
      "name": "name",
      "outputs": [
        {
          "internalType": "string",
          "name": "",
          "type": "string"
        }
      ],
      "stateMutability": "view",
      "type": "function",
      "constant": true
    },
    {
      "inputs": [
        {
          "internalType": "uint256",
          "name": "tokenId",
          "type": "uint256"
        }
      ],
      "name": "ownerOf",
      "outputs": [
        {
          "internalType": "address",
          "name": "",
          "type": "address"
        }
      ],
      "stateMutability": "view",
      "type": "function",
      "constant": true
    },
    {
      "inputs": [
        {
          "internalType": "address",
          "name": "from",
          "type": "address"
        },
        {
          "internalType": "address",
          "name": "to",
          "type": "address"
        },
        {
          "internalType": "uint256",
          "name": "tokenId",
          "type": "uint256"
        }
      ],
      "name": "safeTransferFrom",
      "outputs": [],
      "stateMutability": "nonpayable",
      "type": "function"
    },
    {
      "inputs": [
        {
          "internalType": "address",
          "name": "from",
          "type": "address"
        },
        {
          "internalType": "address",
          "name": "to",
          "type": "address"
        },
        {
          "internalType": "uint256",
          "name": "tokenId",
          "type": "uint256"
        },
        {
          "internalType": "bytes",
          "name": "_data",
          "type": "bytes"
        }
      ],
      "name": "safeTransferFrom",
      "outputs": [],
      "stateMutability": "nonpayable",
      "type": "function"
    },
    {
      "inputs": [
        {
          "internalType": "address",
          "name": "operator",
          "type": "address"
        },
        {
          "internalType": "bool",
          "name": "approved",
          "type": "bool"
        }
      ],
      "name": "setApprovalForAll",
      "outputs": [],
      "stateMutability": "nonpayable",
      "type": "function"
    },
    {
      "inputs": [
        {
          "internalType": "bytes4",
          "name": "interfaceId",
          "type": "bytes4"
        }
      ],
      "name": "supportsInterface",
      "outputs": [
        {
          "internalType": "bool",
          "name": "",
          "type": "bool"
        }
      ],
      "stateMutability": "view",
      "type": "function",
      "constant": true
    },
    {
      "inputs": [],
      "name": "symbol",
      "outputs": [
        {
          "internalType": "string",
          "name": "",
          "type": "string"
        }
      ],
      "stateMutability": "view",
      "type": "function",
      "constant": true
    },
    {
      "inputs": [
        {
          "internalType": "uint256",
          "name": "tokenId",
          "type": "uint256"
        }
      ],
      "name": "tokenURI",
      "outputs": [
        {
          "internalType": "string",
          "name": "",
          "type": "string"
        }
      ],
      "stateMutability": "view",
      "type": "function",
      "constant": true
    },
    {
      "inputs": [
        {
          "internalType": "address",
          "name": "from",
          "type": "address"
        },
        {
          "internalType": "address",
          "name": "to",
          "type": "address"
        },
        {
          "internalType": "uint256",
          "name": "tokenId",
          "type": "uint256"
        }
      ],
      "name": "transferFrom",
      "outputs": [],
      "stateMutability": "nonpayable",
      "type": "function"
    },
    {
      "inputs": [],
      "name": "makeAnEpicNFT",
      "outputs": [],
      "stateMutability": "nonpayable",
      "type": "function"
    }
  ],
  "bytecode": "0x60806040523480156200001157600080fd5b506040518060400160405280600981526020017f417377696e204e465400000000000000000000000000000000000000000000008152506040518060400160405280600581526020017f415357494e000000000000000000000000000000000000000000000000000000815250816000908051906020019062000096929190620000b8565b508060019080519060200190620000af929190620000b8565b505050620001cd565b828054620000c69062000197565b90600052602060002090601f016020900481019282620000ea576000855562000136565b82601f106200010557805160ff191683800117855562000136565b8280016001018555821562000136579182015b828111156200013557825182559160200191906001019062000118565b5b50905062000145919062000149565b5090565b5b80821115620001645760008160009055506001016200014a565b5090565b7f4e487b7100000000000000000000000000000000000000000000000000000000600052602260045260246000fd5b60006002820490506001821680620001b057607f821691505b60208210811415620001c757620001c662000168565b5b50919050565b612b6a80620001dd6000396000f3fe608060405234801561001057600080fd5b50600436106100ea5760003560e01c806370a082311161008c578063b88d4fde11610066578063b88d4fde1461025b578063c87b56dd14610277578063de9d132f146102a7578063e985e9c5146102b1576100ea565b806370a08231146101f157806395d89b4114610221578063a22cb4651461023f576100ea565b8063095ea7b3116100c8578063095ea7b31461016d57806323b872dd1461018957806342842e0e146101a55780636352211e146101c1576100ea565b806301ffc9a7146100ef57806306fdde031461011f578063081812fc1461013d575b600080fd5b61010960048036038101906101049190611986565b6102e1565b60405161011691906119ce565b60405180910390f35b6101276103c3565b6040516101349190611a82565b60405180910390f35b61015760048036038101906101529190611ada565b610455565b6040516101649190611b48565b60405180910390f35b61018760048036038101906101829190611b8f565b6104da565b005b6101a3600480360381019061019e9190611bcf565b6105f2565b005b6101bf60048036038101906101ba9190611bcf565b610652565b005b6101db60048036038101906101d69190611ada565b610672565b6040516101e89190611b48565b60405180910390f35b61020b60048036038101906102069190611c22565b610724565b6040516102189190611c5e565b60405180910390f35b6102296107dc565b6040516102369190611a82565b60405180910390f35b61025960048036038101906102549190611ca5565b61086e565b005b61027560048036038101906102709190611e1a565b610884565b005b610291600480360381019061028c9190611ada565b6108e6565b60405161029e9190611a82565b60405180910390f35b6102af610a38565b005b6102cb60048036038101906102c69190611e9d565b610a7f565b6040516102d891906119ce565b60405180910390f35b60007f80ac58cd000000000000000000000000000000000000000000000000000000007bffffffffffffffffffffffffffffffffffffffffffffffffffffffff1916827bffffffffffffffffffffffffffffffffffffffffffffffffffffffff191614806103ac57507f5b5e139f000000000000000000000000000000000000000000000000000000007bffffffffffffffffffffffffffffffffffffffffffffffffffffffff1916827bffffffffffffffffffffffffffffffffffffffffffffffffffffffff1916145b806103bc57506103bb82610b13565b5b9050919050565b6060600080546103d290611f0c565b80601f01602080910402602001604051908101604052809291908181526020018280546103fe90611f0c565b801561044b5780601f106104205761010080835404028352916020019161044b565b820191906000526020600020905b81548152906001019060200180831161042e57829003601f168201915b5050505050905090565b600061046082610b7d565b61049f576040517f08c379a000000000000000000000000000000000000000000000000000000000815260040161049690611fb0565b60405180910390fd5b6004600083815260200190815260200160002060009054906101000a900473ffffffffffffffffffffffffffffffffffffffff169050919050565b60006104e582610672565b90508073ffffffffffffffffffffffffffffffffffffffff168373ffffffffffffffffffffffffffffffffffffffff161415610556576040517f08c379a000000000000000000000000000000000000000000000000000000000815260040161054d90612042565b60405180910390fd5b8073ffffffffffffffffffffffffffffffffffffffff16610575610be9565b73ffffffffffffffffffffffffffffffffffffffff1614806105a457506105a38161059e610be9565b610a7f565b5b6105e3576040517f08c379a00000000000000000000000000000000000000000000000000000000081526004016105da906120d4565b60405180910390fd5b6105ed8383610bf1565b505050565b6106036105fd610be9565b82610caa565b610642576040517f08c379a000000000000000000000000000000000000000000000000000000000815260040161063990612166565b60405180910390fd5b61064d838383610d88565b505050565b61066d83838360405180602001604052806000815250610884565b505050565b6000806002600084815260200190815260200160002060009054906101000a900473ffffffffffffffffffffffffffffffffffffffff169050600073ffffffffffffffffffffffffffffffffffffffff168173ffffffffffffffffffffffffffffffffffffffff16141561071b576040517f08c379a0000000000000000000000000000000000000000000000000000000008152600401610712906121f8565b60405180910390fd5b80915050919050565b60008073ffffffffffffffffffffffffffffffffffffffff168273ffffffffffffffffffffffffffffffffffffffff161415610795576040517f08c379a000000000000000000000000000000000000000000000000000000000815260040161078c9061228a565b60405180910390fd5b600360008373ffffffffffffffffffffffffffffffffffffffff1673ffffffffffffffffffffffffffffffffffffffff168152602001908152602001600020549050919050565b6060600180546107eb90611f0c565b80601f016020809104026020016040519081016040528092919081815260200182805461081790611f0c565b80156108645780601f1061083957610100808354040283529160200191610864565b820191906000526020600020905b81548152906001019060200180831161084757829003601f168201915b5050505050905090565b610880610879610be9565b8383610fef565b5050565b61089561088f610be9565b83610caa565b6108d4576040517f08c379a00000000000000000000000000000000000000000000000000000000081526004016108cb90612166565b60405180910390fd5b6108e08484848461115c565b50505050565b60606108f182610b7d565b610930576040517f08c379a00000000000000000000000000000000000000000000000000000000081526004016109279061231c565b60405180910390fd5b600060066000848152602001908152602001600020805461095090611f0c565b80601f016020809104026020016040519081016040528092919081815260200182805461097c90611f0c565b80156109c95780601f1061099e576101008083540402835291602001916109c9565b820191906000526020600020905b8154815290600101906020018083116109ac57829003601f168201915b5050505050905060006109da6111b8565b90506000815114156109f0578192505050610a33565b600082511115610a25578082604051602001610a0d929190612378565b60405160208183030381529060405292505050610a33565b610a2e846111cf565b925050505b919050565b6000610a446007611276565b9050610a503382611284565b610a7281604051806080016040528060438152602001612af2604391396112a2565b610a7c6007611316565b50565b6000600560008473ffffffffffffffffffffffffffffffffffffffff1673ffffffffffffffffffffffffffffffffffffffff16815260200190815260200160002060008373ffffffffffffffffffffffffffffffffffffffff1673ffffffffffffffffffffffffffffffffffffffff16815260200190815260200160002060009054906101000a900460ff16905092915050565b60007f01ffc9a7000000000000000000000000000000000000000000000000000000007bffffffffffffffffffffffffffffffffffffffffffffffffffffffff1916827bffffffffffffffffffffffffffffffffffffffffffffffffffffffff1916149050919050565b60008073ffffffffffffffffffffffffffffffffffffffff166002600084815260200190815260200160002060009054906101000a900473ffffffffffffffffffffffffffffffffffffffff1673ffffffffffffffffffffffffffffffffffffffff1614159050919050565b600033905090565b816004600083815260200190815260200160002060006101000a81548173ffffffffffffffffffffffffffffffffffffffff021916908373ffffffffffffffffffffffffffffffffffffffff160217905550808273ffffffffffffffffffffffffffffffffffffffff16610c6483610672565b73ffffffffffffffffffffffffffffffffffffffff167f8c5be1e5ebec7d5bd14f71427d1e84f3dd0314c0f7b2291e5b200ac8c7c3b92560405160405180910390a45050565b6000610cb582610b7d565b610cf4576040517f08c379a0000000000000000000000000000000000000000000000000000000008152600401610ceb9061240e565b60405180910390fd5b6000610cff83610672565b90508073ffffffffffffffffffffffffffffffffffffffff168473ffffffffffffffffffffffffffffffffffffffff161480610d6e57508373ffffffffffffffffffffffffffffffffffffffff16610d5684610455565b73ffffffffffffffffffffffffffffffffffffffff16145b80610d7f5750610d7e8185610a7f565b5b91505092915050565b8273ffffffffffffffffffffffffffffffffffffffff16610da882610672565b73ffffffffffffffffffffffffffffffffffffffff1614610dfe576040517f08c379a0000000000000000000000000000000000000000000000000000000008152600401610df5906124a0565b60405180910390fd5b600073ffffffffffffffffffffffffffffffffffffffff168273ffffffffffffffffffffffffffffffffffffffff161415610e6e576040517f08c379a0000000000000000000000000000000000000000000000000000000008152600401610e6590612532565b60405180910390fd5b610e7983838361132c565b610e84600082610bf1565b6001600360008573ffffffffffffffffffffffffffffffffffffffff1673ffffffffffffffffffffffffffffffffffffffff1681526020019081526020016000206000828254610ed49190612581565b925050819055506001600360008473ffffffffffffffffffffffffffffffffffffffff1673ffffffffffffffffffffffffffffffffffffffff1681526020019081526020016000206000828254610f2b91906125b5565b92505081905550816002600083815260200190815260200160002060006101000a81548173ffffffffffffffffffffffffffffffffffffffff021916908373ffffffffffffffffffffffffffffffffffffffff160217905550808273ffffffffffffffffffffffffffffffffffffffff168473ffffffffffffffffffffffffffffffffffffffff167fddf252ad1be2c89b69c2b068fc378daa952ba7f163c4a11628f55a4df523b3ef60405160405180910390a4610fea838383611331565b505050565b8173ffffffffffffffffffffffffffffffffffffffff168373ffffffffffffffffffffffffffffffffffffffff16141561105e576040517f08c379a000000000000000000000000000000000000000000000000000000000815260040161105590612657565b60405180910390fd5b80600560008573ffffffffffffffffffffffffffffffffffffffff1673ffffffffffffffffffffffffffffffffffffffff16815260200190815260200160002060008473ffffffffffffffffffffffffffffffffffffffff1673ffffffffffffffffffffffffffffffffffffffff16815260200190815260200160002060006101000a81548160ff0219169083151502179055508173ffffffffffffffffffffffffffffffffffffffff168373ffffffffffffffffffffffffffffffffffffffff167f17307eab39ab6107e8899845ad3d59bd9653f200f220920489ca2b5937696c318360405161114f91906119ce565b60405180910390a3505050565b611167848484610d88565b61117384848484611336565b6111b2576040517f08c379a00000000000000000000000000000000000000000000000000000000081526004016111a9906126e9565b60405180910390fd5b50505050565b606060405180602001604052806000815250905090565b60606111da82610b7d565b611219576040517f08c379a00000000000000000000000000000000000000000000000000000000081526004016112109061277b565b60405180910390fd5b60006112236111b8565b90506000815111611243576040518060200160405280600081525061126e565b8061124d846114be565b60405160200161125e929190612378565b6040516020818303038152906040525b915050919050565b600081600001549050919050565b61129e82826040518060200160405280600081525061161f565b5050565b6112ab82610b7d565b6112ea576040517f08c379a00000000000000000000000000000000000000000000000000000000081526004016112e19061280d565b60405180910390fd5b80600660008481526020019081526020016000209080519060200190611311929190611877565b505050565b6001816000016000828254019250508190555050565b505050565b505050565b60006113578473ffffffffffffffffffffffffffffffffffffffff1661167a565b156114b1578373ffffffffffffffffffffffffffffffffffffffff1663150b7a02611380610be9565b8786866040518563ffffffff1660e01b81526004016113a29493929190612882565b6020604051808303816000875af19250505080156113de57506040513d601f19601f820116820180604052508101906113db91906128e3565b60015b611461573d806000811461140e576040519150601f19603f3d011682016040523d82523d6000602084013e611413565b606091505b50600081511415611459576040517f08c379a0000000000000000000000000000000000000000000000000000000008152600401611450906126e9565b60405180910390fd5b805181602001fd5b63150b7a0260e01b7bffffffffffffffffffffffffffffffffffffffffffffffffffffffff1916817bffffffffffffffffffffffffffffffffffffffffffffffffffffffff1916149150506114b6565b600190505b949350505050565b60606000821415611506576040518060400160405280600181526020017f3000000000000000000000000000000000000000000000000000000000000000815250905061161a565b600082905060005b6000821461153857808061152190612910565b915050600a826115319190612988565b915061150e565b60008167ffffffffffffffff81111561155457611553611cef565b5b6040519080825280601f01601f1916602001820160405280156115865781602001600182028036833780820191505090505b5090505b600085146116135760018261159f9190612581565b9150600a856115ae91906129b9565b60306115ba91906125b5565b60f81b8183815181106115d0576115cf6129ea565b5b60200101907effffffffffffffffffffffffffffffffffffffffffffffffffffffffffffff1916908160001a905350600a8561160c9190612988565b945061158a565b8093505050505b919050565b611629838361169d565b6116366000848484611336565b611675576040517f08c379a000000000000000000000000000000000000000000000000000000000815260040161166c906126e9565b60405180910390fd5b505050565b6000808273ffffffffffffffffffffffffffffffffffffffff163b119050919050565b600073ffffffffffffffffffffffffffffffffffffffff168273ffffffffffffffffffffffffffffffffffffffff16141561170d576040517f08c379a000000000000000000000000000000000000000000000000000000000815260040161170490612a65565b60405180910390fd5b61171681610b7d565b15611756576040517f08c379a000000000000000000000000000000000000000000000000000000000815260040161174d90612ad1565b60405180910390fd5b6117626000838361132c565b6001600360008473ffffffffffffffffffffffffffffffffffffffff1673ffffffffffffffffffffffffffffffffffffffff16815260200190815260200160002060008282546117b291906125b5565b92505081905550816002600083815260200190815260200160002060006101000a81548173ffffffffffffffffffffffffffffffffffffffff021916908373ffffffffffffffffffffffffffffffffffffffff160217905550808273ffffffffffffffffffffffffffffffffffffffff16600073ffffffffffffffffffffffffffffffffffffffff167fddf252ad1be2c89b69c2b068fc378daa952ba7f163c4a11628f55a4df523b3ef60405160405180910390a461187360008383611331565b5050565b82805461188390611f0c565b90600052602060002090601f0160209004810192826118a557600085556118ec565b82601f106118be57805160ff19168380011785556118ec565b828001600101855582156118ec579182015b828111156118eb5782518255916020019190600101906118d0565b5b5090506118f991906118fd565b5090565b5b808211156119165760008160009055506001016118fe565b5090565b6000604051905090565b600080fd5b600080fd5b60007fffffffff0000000000000000000000000000000000000000000000000000000082169050919050565b6119638161192e565b811461196e57600080fd5b50565b6000813590506119808161195a565b92915050565b60006020828403121561199c5761199b611924565b5b60006119aa84828501611971565b91505092915050565b60008115159050919050565b6119c8816119b3565b82525050565b60006020820190506119e360008301846119bf565b92915050565b600081519050919050565b600082825260208201905092915050565b60005b83811015611a23578082015181840152602081019050611a08565b83811115611a32576000848401525b50505050565b6000601f19601f8301169050919050565b6000611a54826119e9565b611a5e81856119f4565b9350611a6e818560208601611a05565b611a7781611a38565b840191505092915050565b60006020820190508181036000830152611a9c8184611a49565b905092915050565b6000819050919050565b611ab781611aa4565b8114611ac257600080fd5b50565b600081359050611ad481611aae565b92915050565b600060208284031215611af057611aef611924565b5b6000611afe84828501611ac5565b91505092915050565b600073ffffffffffffffffffffffffffffffffffffffff82169050919050565b6000611b3282611b07565b9050919050565b611b4281611b27565b82525050565b6000602082019050611b5d6000830184611b39565b92915050565b611b6c81611b27565b8114611b7757600080fd5b50565b600081359050611b8981611b63565b92915050565b60008060408385031215611ba657611ba5611924565b5b6000611bb485828601611b7a565b9250506020611bc585828601611ac5565b9150509250929050565b600080600060608486031215611be857611be7611924565b5b6000611bf686828701611b7a565b9350506020611c0786828701611b7a565b9250506040611c1886828701611ac5565b9150509250925092565b600060208284031215611c3857611c37611924565b5b6000611c4684828501611b7a565b91505092915050565b611c5881611aa4565b82525050565b6000602082019050611c736000830184611c4f565b92915050565b611c82816119b3565b8114611c8d57600080fd5b50565b600081359050611c9f81611c79565b92915050565b60008060408385031215611cbc57611cbb611924565b5b6000611cca85828601611b7a565b9250506020611cdb85828601611c90565b9150509250929050565b600080fd5b600080fd5b7f4e487b7100000000000000000000000000000000000000000000000000000000600052604160045260246000fd5b611d2782611a38565b810181811067ffffffffffffffff82111715611d4657611d45611cef565b5b80604052505050565b6000611d5961191a565b9050611d658282611d1e565b919050565b600067ffffffffffffffff821115611d8557611d84611cef565b5b611d8e82611a38565b9050602081019050919050565b82818337600083830152505050565b6000611dbd611db884611d6a565b611d4f565b905082815260208101848484011115611dd957611dd8611cea565b5b611de4848285611d9b565b509392505050565b600082601f830112611e0157611e00611ce5565b5b8135611e11848260208601611daa565b91505092915050565b60008060008060808587031215611e3457611e33611924565b5b6000611e4287828801611b7a565b9450506020611e5387828801611b7a565b9350506040611e6487828801611ac5565b925050606085013567ffffffffffffffff811115611e8557611e84611929565b5b611e9187828801611dec565b91505092959194509250565b60008060408385031215611eb457611eb3611924565b5b6000611ec285828601611b7a565b9250506020611ed385828601611b7a565b9150509250929050565b7f4e487b7100000000000000000000000000000000000000000000000000000000600052602260045260246000fd5b60006002820490506001821680611f2457607f821691505b60208210811415611f3857611f37611edd565b5b50919050565b7f4552433732313a20617070726f76656420717565727920666f72206e6f6e657860008201527f697374656e7420746f6b656e0000000000000000000000000000000000000000602082015250565b6000611f9a602c836119f4565b9150611fa582611f3e565b604082019050919050565b60006020820190508181036000830152611fc981611f8d565b9050919050565b7f4552433732313a20617070726f76616c20746f2063757272656e74206f776e6560008201527f7200000000000000000000000000000000000000000000000000000000000000602082015250565b600061202c6021836119f4565b915061203782611fd0565b604082019050919050565b6000602082019050818103600083015261205b8161201f565b9050919050565b7f4552433732313a20617070726f76652063616c6c6572206973206e6f74206f7760008201527f6e6572206e6f7220617070726f76656420666f7220616c6c0000000000000000602082015250565b60006120be6038836119f4565b91506120c982612062565b604082019050919050565b600060208201905081810360008301526120ed816120b1565b9050919050565b7f4552433732313a207472616e736665722063616c6c6572206973206e6f74206f60008201527f776e6572206e6f7220617070726f766564000000000000000000000000000000602082015250565b60006121506031836119f4565b915061215b826120f4565b604082019050919050565b6000602082019050818103600083015261217f81612143565b9050919050565b7f4552433732313a206f776e657220717565727920666f72206e6f6e657869737460008201527f656e7420746f6b656e0000000000000000000000000000000000000000000000602082015250565b60006121e26029836119f4565b91506121ed82612186565b604082019050919050565b60006020820190508181036000830152612211816121d5565b9050919050565b7f4552433732313a2062616c616e636520717565727920666f7220746865207a6560008201527f726f206164647265737300000000000000000000000000000000000000000000602082015250565b6000612274602a836119f4565b915061227f82612218565b604082019050919050565b600060208201905081810360008301526122a381612267565b9050919050565b7f45524337323155524953746f726167653a2055524920717565727920666f722060008201527f6e6f6e6578697374656e7420746f6b656e000000000000000000000000000000602082015250565b60006123066031836119f4565b9150612311826122aa565b604082019050919050565b60006020820190508181036000830152612335816122f9565b9050919050565b600081905092915050565b6000612352826119e9565b61235c818561233c565b935061236c818560208601611a05565b80840191505092915050565b60006123848285612347565b91506123908284612347565b91508190509392505050565b7f4552433732313a206f70657261746f7220717565727920666f72206e6f6e657860008201527f697374656e7420746f6b656e0000000000000000000000000000000000000000602082015250565b60006123f8602c836119f4565b91506124038261239c565b604082019050919050565b60006020820190508181036000830152612427816123eb565b9050919050565b7f4552433732313a207472616e736665722066726f6d20696e636f72726563742060008201527f6f776e6572000000000000000000000000000000000000000000000000000000602082015250565b600061248a6025836119f4565b91506124958261242e565b604082019050919050565b600060208201905081810360008301526124b98161247d565b9050919050565b7f4552433732313a207472616e7366657220746f20746865207a65726f2061646460008201527f7265737300000000000000000000000000000000000000000000000000000000602082015250565b600061251c6024836119f4565b9150612527826124c0565b604082019050919050565b6000602082019050818103600083015261254b8161250f565b9050919050565b7f4e487b7100000000000000000000000000000000000000000000000000000000600052601160045260246000fd5b600061258c82611aa4565b915061259783611aa4565b9250828210156125aa576125a9612552565b5b828203905092915050565b60006125c082611aa4565b91506125cb83611aa4565b9250827fffffffffffffffffffffffffffffffffffffffffffffffffffffffffffffffff03821115612600576125ff612552565b5b828201905092915050565b7f4552433732313a20617070726f766520746f2063616c6c657200000000000000600082015250565b60006126416019836119f4565b915061264c8261260b565b602082019050919050565b6000602082019050818103600083015261267081612634565b9050919050565b7f4552433732313a207472616e7366657220746f206e6f6e20455243373231526560008201527f63656976657220696d706c656d656e7465720000000000000000000000000000602082015250565b60006126d36032836119f4565b91506126de82612677565b604082019050919050565b60006020820190508181036000830152612702816126c6565b9050919050565b7f4552433732314d657461646174613a2055524920717565727920666f72206e6f60008201527f6e6578697374656e7420746f6b656e0000000000000000000000000000000000602082015250565b6000612765602f836119f4565b915061277082612709565b604082019050919050565b6000602082019050818103600083015261279481612758565b9050919050565b7f45524337323155524953746f726167653a2055524920736574206f66206e6f6e60008201527f6578697374656e7420746f6b656e000000000000000000000000000000000000602082015250565b60006127f7602e836119f4565b91506128028261279b565b604082019050919050565b60006020820190508181036000830152612826816127ea565b9050919050565b600081519050919050565b600082825260208201905092915050565b60006128548261282d565b61285e8185612838565b935061286e818560208601611a05565b61287781611a38565b840191505092915050565b60006080820190506128976000830187611b39565b6128a46020830186611b39565b6128b16040830185611c4f565b81810360608301526128c38184612849565b905095945050505050565b6000815190506128dd8161195a565b92915050565b6000602082840312156128f9576128f8611924565b5b6000612907848285016128ce565b91505092915050565b600061291b82611aa4565b91507fffffffffffffffffffffffffffffffffffffffffffffffffffffffffffffffff82141561294e5761294d612552565b5b600182019050919050565b7f4e487b7100000000000000000000000000000000000000000000000000000000600052601260045260246000fd5b600061299382611aa4565b915061299e83611aa4565b9250826129ae576129ad612959565b5b828204905092915050565b60006129c482611aa4565b91506129cf83611aa4565b9250826129df576129de612959565b5b828206905092915050565b7f4e487b7100000000000000000000000000000000000000000000000000000000600052603260045260246000fd5b7f4552433732313a206d696e7420746f20746865207a65726f2061646472657373600082015250565b6000612a4f6020836119f4565b9150612a5a82612a19565b602082019050919050565b60006020820190508181036000830152612a7e81612a42565b9050919050565b7f4552433732313a20746f6b656e20616c7265616479206d696e74656400000000600082015250565b6000612abb601c836119f4565b9150612ac682612a85565b602082019050919050565b60006020820190508181036000830152612aea81612aae565b905091905056fe68747470733a2f2f697066732e696f2f697066732f516d665177546579746b7347766e7154674b5035794d484e595a4c367168446964524a6e5947425435636a624a43a26469706673582212202bdf6f52097f2ed80ef5ba94e3171326562381848ee651f437af6d1760dc846364736f6c634300080c0033",
  "immutableReferences": {},
  "source": "// SPDX-License-Identifier: UNLICENSED\r\n\r\nimport \"@openzeppelin/contracts/token/ERC721/extensions/ERC721URIStorage.sol\";\r\nimport \"@openzeppelin/contracts/utils/Counters.sol\";\r\n\r\npragma solidity ^0.8.1;\r\n\r\ncontract MyEpicNFT is ERC721URIStorage {\r\n    using Counters for Counters.Counter;\r\n    Counters.Counter private _tokenIds;\r\n\r\n    constructor() ERC721(\"Aswin NFT\", \"ASWIN\") {}\r\n\r\n    function makeAnEpicNFT() public {\r\n        uint256 newItemId = _tokenIds.current();\r\n        _safeMint(msg.sender, newItemId);\r\n        _setTokenURI(\r\n            newItemId,\r\n            \"https://ipfs.io/ipfs/QmfQwTeytksGvnqTgKP5yMHNYZL6qhDidRJnYGBT5cjbJC\"\r\n        );\r\n        _tokenIds.increment();\r\n    }\r\n}\r\n",
  "sourcePath": "D:\\web3.py\\nft\\contracts\\MyEpicNFT.sol",
  "compiler": {
    "name": "solc",
    "version": "0.8.12+commit.f00d7308.Emscripten.clang"
  },
  "schemaVersion": "3.4.4",
  "updatedAt": "2022-03-04T08:57:22.213Z",
  "networkType": "ethereum",
  "devdoc": {
    "kind": "dev",
    "methods": {
      "approve(address,uint256)": {
        "details": "See {IERC721-approve}."
      },
      "balanceOf(address)": {
        "details": "See {IERC721-balanceOf}."
      },
      "getApproved(uint256)": {
        "details": "See {IERC721-getApproved}."
      },
      "isApprovedForAll(address,address)": {
        "details": "See {IERC721-isApprovedForAll}."
      },
      "name()": {
        "details": "See {IERC721Metadata-name}."
      },
      "ownerOf(uint256)": {
        "details": "See {IERC721-ownerOf}."
      },
      "safeTransferFrom(address,address,uint256)": {
        "details": "See {IERC721-safeTransferFrom}."
      },
      "safeTransferFrom(address,address,uint256,bytes)": {
        "details": "See {IERC721-safeTransferFrom}."
      },
      "setApprovalForAll(address,bool)": {
        "details": "See {IERC721-setApprovalForAll}."
      },
      "supportsInterface(bytes4)": {
        "details": "See {IERC165-supportsInterface}."
      },
      "symbol()": {
        "details": "See {IERC721Metadata-symbol}."
      },
      "tokenURI(uint256)": {
        "details": "See {IERC721Metadata-tokenURI}."
      },
      "transferFrom(address,address,uint256)": {
        "details": "See {IERC721-transferFrom}."
      }
    },
    "version": 1
  },
  "userdoc": {
    "kind": "user",
    "methods": {},
    "version": 1
  }
}